:100000000C9447010C94A8050C94CF050C94F605AC
:100010000C941D060C946F010C946F010C94440613
:100020000C946F010C946F010C94340B0C94C30965
:100030000C946F010C946F010C946F010C946F0180
:100040000C946F010C946F010C946F010C946F0170
:100050000C943D070C946F010C946F010C947C037D
:100060000C946F010C946F010C946F010C946F0150
:100070000C946F010C946F010C946F010C946F0140
:100080000C946F010C946F010C946F010C946F0130
:100090000C946F010C946F010C946F010C946F0120
:1000A0000C946F010C946F010C946F0195049804EB
:1000B00087048B049104B904B904B9049C04A00416
:1000C000A404AA04AE04B904B404000000000000B3
:1000D00000002A2B280000000000000000000000A3
:1000E000000000000000000000002C9EB4A0A1A2AF
:1000F000A434A6A7A5AE362D3738271E1F202122EF
:1001000023242526B333B62EB7B89F8485868788E7
:10011000898A8B8C8D8E8F909192939495969798D7
:10012000999A9B9C9D2F3130A3AD35040506070895
:10013000090A0B0C0D0E0F101112131415161718B7
:10014000191A1B1C1DAFB1B0B50000000002000958
:100150000F0000030401000C00000000000000007C
:1001600000000000000000000004080201104080B0
:10017000401020408040800802040180402010028E
:1001800001108010204040200404040404030405EE
:100190000202020204030202020206060606060624
:1001A00004040202020404000000002300260029C7
:1001B000002C002F0000000000250028002B002E3E
:1001C00000310000000000240027002A002D00302C
:1001D0000005010906A1018508050719E029E715B1
:1001E0000025017501950881021900296715002570
:1001F0000175019568810295017508150026E700D3
:10020000190029E78100C012010002EF02014041FC
:1002100023368000010102030112010002000000E8
:100220004041233680000101020301417264756977
:100230006E6F204C4C430055534220494F20426F73
:100240006172640004030904080B00020202010049
:100250000904000001020200000524001001052429
:10026000010101042402060524060001070581039B
:1002700010004009040100020A0000000705020204
:100280004000000705830240000038079E0D11243E
:100290001FBECFEFDAE0DEBFCDBF11E0A0E0B1E0DE
:1002A000E4E1FEE102C005900D92A436B107D9F752
:1002B00022E0A4E6B1E001C01D92A132B207E1F74D
:1002C00011E0C7E4D1E004C02197FE010E94020FB3
:1002D000C534D107C9F70E946D060C94FF0E0C942B
:1002E0000000CF93DF93F8948091700181111EC0BC
:1002F000809171018137D1F082E00E942E05EC01DE
:1003000083E00E942E05C817D90721F4809172015D
:100310008F5F03C08091720181508093720181E7E9
:100320008093710184E0809370017894DF91CF9184
:100330000895CF93DF93F8948091700181111EC0CE
:10034000809171018136D1F082E00E942E05EC018E
:1003500083E00E942E05C817D90721F4809172010D
:10036000815003C0809172018F5F8093720181E69A
:100370008093710184E0809370017894DF91CF9134
:100380000895EF92FF920F931F93CF93DF937C0119
:10039000D42FE62FF0E0E038F10540F081E090E066
:1003A000D70113969C938E93129720C0E653FF4F6C
:1003B000C4916C2F6F77DC01ED91FC910084F18585
:1003C000E02D09958C01C7FF13C0892B11F4D111C1
:1003D0000DC0D701ED91FC910084F185E02D4D2FEA
:1003E00061EEC7010995802B912B02C080E090E05F
:1003F000DF91CF911F910F91FF90EF9008950F9390
:100400001F93CF93DF93EC0141E00E94C1018C0167
:10041000892B39F0E881F9810680F781E02DCE0142
:100420000995C801DF91CF911F910F9108950F9306
:100430001F93CF93DF93EC0140E00E94C1018C0138
:10044000892B39F0E881F9810680F781E02DCE0112
:100450000995C801DF91CF911F910F9108959F9247
:10046000AF92BF92CF92DF92EF92FF920F931F93C2
:10047000CF93DF9381E3A82E81E0B82E98E2E92E96
:1004800091E0F92EC0E0D0E099249394CE01805001
:100490009F4F6C01FC011081F50181915F010E9469
:1004A0002E05110F812BF60180838081811110C0F0
:1004B0008E0109591E4FF801808181111CC0F7017E
:1004C000608182E891E00E94FF01F801908213C0F0
:1004D000F60180818F3F79F48E0109591E4FF80192
:1004E0008081882341F0F701608182E891E00E94D9
:1004F0001702F80110822196FFEFEF1AFF0AC930A8
:10050000D10521F6DF91CF911F910F91FF90EF90D0
:10051000DF90CF90BF90AF909F900895CF93809140
:10052000700118162CF48091700181508093700135
:1005300080917201813124F480917201803F1CF519
:1005400080917201181614F0C1E601C0C1E78091D4
:100550006601C81789F080916601882331F06091A7
:10056000660182E891E00E9417026C2F82E891E018
:100570000E94FF01C0936601109265011092640110
:100580001092720121C0809166018823E9F0809168
:100590006401909165018032934068F0609166013A
:1005A00082E891E00E9417021092660110926501A4
:1005B0001092640109C080916401909165010196D7
:1005C0009093650180936401CF910895F8940E94FF
:1005D0002F020E948E02789408950F931F93CF9359
:1005E000DF9301E311E0C0E0C1110BC0F801D0813D
:1005F00061E08D2F0E94BA0460E08D2F0E94F60406
:1006000008C062E0F801319780810E94BA04C930C5
:1006100069F76BE470E080E090E00E94EB03CF5F4D
:100620000F5F1F4FCA3001F7DF91CF911F910F91DC
:10063000089508950F931F93CF93DF9362E082E0B4
:100640000E94BA0462E083E00E94BA040E94ED02B4
:10065000C1E3D1E00AE311E062E089910E94BA04AB
:100660000C171D07C9F7E6E8F1E045E951E02081E4
:10067000822F90E095958795282F892BC9F71192A5
:100680004E175F07A1F782E891E00E94960680E18D
:10069000809381001092800080ED97E09093870016
:1006A0008093860031E13093810021E020939D0109
:1006B00090939F0180939E01909387008093860082
:1006C0003093810086EE92E09093140180931301A1
:1006D00020936F0041E050E061E771E081E00E940B
:1006E000580541E050E069E971E080E0DF91CF9189
:1006F0001F910F910C9458051F920F920FB60F92F5
:1007000011242F933F938F939F93AF93BF93809127
:10071000740190917501A0917601B09177013091AB
:10072000730123E0230F2D3720F40196A11DB11D85
:1007300005C026E8230F0296A11DB11D2093730169
:100740008093740190937501A0937601B093770123
:100750008091780190917901A0917A01B0917B010B
:100760000196A11DB11D8093780190937901A0930A
:100770007A01B0937B01BF91AF919F918F913F918F
:100780002F910F900FBE0F901F9018953FB7F894C0
:100790008091780190917901A0917A01B0917B01CB
:1007A00026B5A89B05C02F3F19F00196A11DB11DCC
:1007B0003FBFBA2FA92F982F8827820F911DA11D07
:1007C000B11DBC01CD0142E0660F771F881F991F44
:1007D0004A95D1F708958F929F92AF92BF92CF9290
:1007E000DF92EF92FF926B017C010E94C6034B01E6
:1007F0005C01C114D104E104F10401F10E946B0613
:100800000E94C603DC01CB0188199909AA09BB091A
:10081000883E9340A105B10560F321E0C21AD108DA
:10082000E108F10888EE880E83E0981EA11CB11C37
:10083000C114D104E104F10419F7DBCFFF90EF906C
:10084000DF90CF90BF90AF909F908F900895789455
:1008500084B5826084BD84B5816084BD85B58260C5
:1008600085BD85B5816085BDEEE6F0E08081816063
:100870008083E1E8F0E01082808182608083808163
:1008800081608083E0E8F0E0808181608083E1E93D
:10089000F0E0808182608083808181608083E0E9F4
:1008A000F0E0808181608083E1ECF0E08081846011
:1008B0008083808182608083808181608083E3EC9B
:1008C000F0E0808181608083E0ECF0E080818260F4
:1008D0008083E2ECF0E0808181608083EAE7F0E0F1
:1008E0008081846080838081826080838081816058
:1008F0008083808180688083089590E0FC01319737
:10090000EF30F105B0F5EA5AFF4F0C94020F8091D9
:1009100080008F7703C0809180008F7D809380005E
:10092000089580918000877FF9CF84B58F7702C0CA
:1009300084B58F7D84BD0895809190008F7707C026
:10094000809190008F7D03C080919000877F80937D
:10095000900008958091C0008F7703C08091C000FF
:100960008F7D8093C00008958091C200877F80931F
:10097000C2000895CF93DF9390E0FC01E759FE4F4A
:100980002491FC01E857FE4F8491882361F190E0A7
:10099000880F991FFC01ED53FE4FC591D491FC01C6
:1009A000EB54FE4FA591B491611109C09FB7F89423
:1009B0008881209582238883EC912E230BC062309E
:1009C00061F49FB7F8948881322F30958323888310
:1009D000EC912E2B2C939FBF06C08FB7F894E88123
:1009E0002E2B28838FBFDF91CF9108950F931F93F4
:1009F000CF93DF931F92CDB7DEB7282F30E0F901F8
:100A0000E65BFE4F8491F901E759FE4F1491F9011D
:100A1000E857FE4F04910023D9F0882321F0698321
:100A20000E947D046981E02FF0E0EE0FFF1FEB5480
:100A3000FE4FA591B4919FB7F894611105C08C91B8
:100A4000E12FE095E82302C0EC91E12BEC939FBFEE
:100A50000F90DF91CF911F910F910895CF93DF9366
:100A6000282F30E0F901E65BFE4F8491F901E75948
:100A7000FE4FD491F901E857FE4FC491CC2391F079
:100A800081110E947D04EC2FF0E0EE0FFF1FE9556D
:100A9000FE4FA591B491EC91ED2381E090E021F41B
:100AA00080E002C080E090E0DF91CF91089508954A
:100AB000853008F04CC0E82FF0E0EE0FFF1FE75F35
:100AC000FE4F718360838230E1F018F4813069F069
:100AD00004C0833019F1843071F1809169008C7FFA
:100AE000482B40936900E89A089580916900837FBC
:100AF000440F551F440F551F482B40936900E99A36
:100B00000895809169008F7C34E0440F551F3A9519
:100B1000E1F7482B40936900EA9A089580916900B3
:100B20008F7326E0440F551F2A95E1F7482B409319
:100B30006900EB9A089580916A008F7C94E0440FDD
:100B4000551F9A95E1F7482B40936A00EE9A089555
:100B50001F920F920FB60F9211242F933F934F9332
:100B60005F936F937F938F939F93AF93BF93EF9315
:100B7000FF93E0910901F0910A010995FF91EF912E
:100B8000BF91AF919F918F917F916F915F914F91A5
:100B90003F912F910F900FBE0F901F9018951F92AD
:100BA0000F920FB60F9211242F933F934F935F93A1
:100BB0006F937F938F939F93AF93BF93EF93FF9325
:100BC000E0910B01F0910C010995FF91EF91BF911C
:100BD000AF919F918F917F916F915F914F913F91D5
:100BE0002F910F900FBE0F901F9018951F920F928C
:100BF0000FB60F9211242F933F934F935F936F93F0
:100C00007F938F939F93AF93BF93EF93FF93E09165
:100C10000D01F0910E010995FF91EF91BF91AF91F8
:100C20009F918F917F916F915F914F913F912F9104
:100C30000F900FBE0F901F9018951F920F920FB636
:100C40000F9211242F933F934F935F936F937F9352
:100C50008F939F93AF93BF93EF93FF93E0910F0117
:100C6000F09110010995FF91EF91BF91AF919F9184
:100C70008F917F916F915F914F913F912F910F9045
:100C80000FBE0F901F9018951F920F920FB60F92E4
:100C900011242F933F934F935F936F937F938F9381
:100CA0009F93AF93BF93EF93FF93E0911101F09166
:100CB00012010995FF91EF91BF91AF919F918F9193
:100CC0007F916F915F914F913F912F910F900FBE48
:100CD0000F901F901895089508950E9427040E9470
:100CE0006C0680EA91E00E94B70B0E941A03C0E0F4
:100CF000D0E00E9419032097E1F30E940000F9CF91
:100D0000FC0134969C012D5E3F4F80E090E06081B5
:100D100060FD0196462F50E055954795642F452B71
:100D2000B9F71192E217F30791F70895CF93DF9384
:100D3000EC010E94F10EAE014C5F5F4F2FE030E0FE
:100D400068E0DF91CF910C949D0EFC016836B8F4F9
:100D5000862F877021E030E001C0220F8A95EAF7E4
:100D6000669566956695E60FF11D442319F0858119
:100D7000282B03C020958581282325830FC050E2AE
:100D8000560F5830C0F46481442359F021E030E01C
:100D900001C0220F5A95EAF7262B248381E090E0C8
:100DA000089581E090E001C0880F5A95EAF7809598
:100DB00086238483F3CF8289442331F0681711F0AE
:100DC000811106C0628BEACF681302C0128AE6CF97
:100DD00080E090E00895FF920F931F93CF93DF93ED
:100DE000EC01F62E41E00E94C1018C01892BA9F093
:100DF000E881F9810680F781E02DCE01099540E078
:100E00006F2DCE010E94C101892B39F0E881F98153
:100E10000680F781E02DCE010995C801DF91CF91C1
:100E20001F910F91FF900895FC01138212822EE30F
:100E300031E03183208380919501811113C010929C
:100E40007D0110927C0181ED91E090937F01809370
:100E50007E0186E390E0909381018093800181E0A0
:100E6000809395010E94F10E6CE771E00C94800E66
:100E700082E891E00C94140708951F920F920FB628
:100E80000F9211242F933F934F935F936F937F9310
:100E90008F939F93AF93BF93EF93FF93E0911301D1
:100EA000F09114010995FF91EF91BF91AF919F913E
:100EB0008F917F916F915F914F913F912F910F9003
:100EC0000FBE0F901F901895CF92DF92EF92FF9276
:100ED0000F931F93CF93DF936C017A018B01C0E0D6
:100EE000D0E0CE15DF0581F0D8016D918D01D601DE
:100EF000ED91FC910190F081E02DC6010995892BBF
:100F000011F02196EECF7E01C701DF91CF911F91A5
:100F10000F91FF90EF90DF90CF900895615030F0E7
:100F20002091F100FC0120830196F8CF289884E6F7
:100F30008093A90108954091A4015091A5012091A9
:100F4000A2013091A30142175307B4F49091E80035
:100F50009570E1F39091E80092FD19C08093F10043
:100F60008091A4019091A50101968F739927892BF7
:100F700019F48EEF8093E8008091A4019091A5016F
:100F800001969093A5018093A40181E0089580E0EB
:100F90000895CF92DF92EF92FF920F931F93CF931A
:100FA000DF931F92CDB7DEB7F82EE42E062F10E0A8
:100FB00098012F5F3F4F822F880F99830E949B07D4
:100FC00083E00E949B07CF2C9981D92E0C0D1D1D0B
:100FD000C016D10699F0F601E7FE02C0849101C067
:100FE00080810E949B07F82E80E00E949B078F2142
:100FF000FFEFCF1ADF0A8111EBCF01C081E00F9024
:10100000DF91CF911F910F91FF90EF90DF90CF90E4
:1010100008958091D70081608093D70080EA809303
:10102000D80089B5806189BD89B5826089BD09B460
:1010300000FEFDCF61E070E080E090E00E94EB03F5
:101040008091D8008F7C80618093D8008091E000EF
:10105000807F8093E0000895CF93DF931F92CDB7F8
:10106000DEB71982CE0101960E94110D0E94A00CDC
:10107000BE016F5F7F4F0E94D40B89810F90DF917B
:10108000CF9108952FB7FC012083F8946770609387
:10109000E9000895CF93DF931F92CDB7DEB7682F95
:1010A000CE0101960E9442088091F20099819FBF73
:1010B0000F90DF91CF910895FF920F931F93CF93DD
:1010C000DF9300D0CDB7DEB7F62E8A019091A8014C
:1010D000992311F057FF03C08FEF9FEF2AC0682FAD
:1010E000CE0101967A830E9442082091F20030E0FE
:1010F0007A81021713070CF49801822FEF2DF72F36
:1011000094E6815038F028989093A9014091F1001D
:101110004193F7CF2115310521F08091F20088230A
:1011200021F089818FBFC90104C08BE68093E8005C
:10113000F8CF0F900F90DF91CF911F910F91FF90FB
:101140000895CF93DF931F92CDB7DEB741E050E013
:10115000BE016F5F7F4F0E945C08019719F489817F
:1011600090E002C08FEF9FEF0F90DF91CF91089535
:10117000CF93DF931F92CDB7DEB7682FCE010196D4
:101180000E9442089091E800892F807295FF04C068
:101190009091F20080E4891B99819FBF0F90DF91AD
:1011A000CF9108956F927F928F929F92AF92BF924C
:1011B000CF92DF92EF92FF920F931F93CF93DF9323
:1011C0001F92CDB7DEB7A82E6B01B42E052F8091EC
:1011D000A801882369F0E42EF52E8AEF982E8A2D37
:1011E0008072782E9AE3892E8A2D8074682E12C020
:1011F0008FEF9FEF53C08A2D0E94B808182F8111DE
:101200000DC09A949920A1F361E070E080E090E035
:101210000E94EB03E114F10471F736C090E0E81688
:10122000F9060CF41E2D6A2DCE0101960E9442088B
:101230008091E80085FF25C0812F90E0E81AF90A27
:10124000772029F01150A0F01092F100FBCFF601A9
:10125000A7FE0AC0115050F024912093F10031965E
:10126000F9CF21912093F1001150D8F7C80ED91E63
:101270008091E80085FF0FC0E114F10411F46110C2
:101280000AC089818FBFC6CF5D9884E68093AA018A
:101290008B2D902F03C08092E800F3CF0F90DF9149
:1012A000CF911F910F91FF90EF90DF90CF90BF9063
:1012B000AF909F908F907F906F9008951092E9006B
:1012C0001092A5011092A4019093A3018093A20112
:1012D0000895DF92EF92FF920F931F93CF93DF93C6
:1012E000D82E8A017B01E40EF51EEB01CE15DF0539
:1012F00071F0D7FE03C0FE01849101C088810E9475
:101300009B0721968111F2CF8FEF9FEF01C0C8019B
:10131000DF91CF911F910F91FF90EF90DF90089593
:10132000AF92BF92DF92EF92FF920F931F93CF93F2
:10133000DF935C018B01EB019BEFD92E2097C1F06D
:101340007E01C134D1051CF080E4E82EF12C80919F
:10135000E80082FFFCCFC8018C1B9D0B6E2D8A0D0F
:101360009B1D0E948E07D092E800CE19DF09E6CFC0
:10137000C801DF91CF911F910F91FF90EF90DF9007
:10138000BF90AF9008951F920F920FB60F92112445
:10139000CF92DF92EF92FF920F931F932F933F9381
:1013A0004F935F936F937F938F939F93AF93BF936D
:1013B000EF93FF93CF93DF93CDB7DEB76C97DEBF8C
:1013C000CDBF1092E9008091E80083FF24C168E05E
:1013D000CE0145960E948E0782EF8093E8008D89AA
:1013E00087FF05C09091E80090FFFCCF03C09EEFFF
:1013F0009093E800982F907609F0E5C09E894F8978
:10140000588D2F89188D91110CC0803829F4809146
:10141000A7018093F10002C01092F1001092F10038
:10142000F3C0913051F48111EFC04130510509F002
:10143000EBC08091A7018D7F0BC0933061F48111C7
:10144000E3C04130510509F0DFC08091A7018260FF
:101450008093A701D9C0953049F48091E80080FFBE
:10146000FCCF822F80688093E300CEC0963009F0D5
:101470007DC0EB8CFC8C123069F580E090E00E941E
:101480005E090E942C0899E09E012F5F3F4F690181
:10149000F901292F11922A95E9F799831A8391E08E
:1014A0009E8390EA98879AEF99872091A4013091C2
:1014B000A501275F3F4F3C832B838D83C7010E948B
:1014C0005E0949E050E0B60180E00E9469090E948F
:1014D0002C089AC0C7010E945E090E94A00CBE01A0
:1014E0006B5E7F4F0E94FD0B009719F00CF08CC0D3
:1014F0008FC0113071F48B8D9C8D089719F481E0A9
:101500008093A1018091A101811173C069E172E012
:1015100075C0133009F07CC08F89882309F46CC032
:10152000823029F440E86CE087E392E006C0813025
:1015300039F440E86BE08BE292E00E94C90756C0A4
:10154000833009F065C00E94A00C8E010F5F1F4F11
:10155000B8010E941C0CF80101900020E9F73197B6
:10156000BF01601B710B40E0C801E7CF973009F461
:101570004FC0983021F481E08093F10045C099304C
:1015800009F042C0837009F043C0E6E1F1E081E078
:1015900031E096E32081211109C08EE78093EA00B3
:1015A0001092EA008F898093A8012EC08093E900F1
:1015B0003093EB0021912093EC009093ED008F5F2E
:1015C000873041F7EACF8B8D9C8D0E945E09898D13
:1015D000811105C0CE0145960E941C0D07C00E94D6
:1015E000A00CBE016B5E7F4F0E943B0C882381F0F4
:1015F0000BC067E072E002C064E472E0FB0144915A
:1016000050E080E80E9469098EEF8093E80003C0F3
:1016100081E28093EB006C960FB6F894DEBF0FBEAC
:10162000CDBFDF91CF91FF91EF91BF91AF919F918E
:101630008F917F916F915F914F913F912F911F916A
:101640000F91FF90EF90DF90CF900F900FBE0F9013
:101650001F9018958093E9008091F200882319F07B
:101660008AE38093E80008951F920F920FB60F92BD
:1016700011242F933F934F935F936F937F938F9397
:101680009F93AF93BF93CF93EF93FF93C091E100EC
:101690008091E100837F8093E1008093E100C3FFAC
:1016A0000FC01092E90081E08093EB001092EC00F3
:1016B00082E38093ED001092A80188E08093F0000F
:1016C000C2FF19C083E00E942A0B8091AA018823DF
:1016D00039F08091AA0181508093AA01882389F171
:1016E0008091A901882339F08091A90181508093CC
:1016F000A901882341F1C4FF10C08091E2008E7ED1
:1017000081608093E2008091E1008F7E8093E10010
:101710008091A6018E7E806111C0C0FF16C08091AD
:10172000E2008E7E80618093E2008091E1008E7EF7
:101730008093E1008091A6018E7E81608093A60156
:1017400004C05D9ACDCF289AD6CFFF91EF91CF916B
:10175000BF91AF919F918F917F916F915F914F91C9
:101760003F912F910F900FBE0F901F9018951092E0
:10177000A8011092A7011092A6010E940908809169
:10178000E1008E7E8093E1008DE08093E200559A27
:10179000209AEEEFFFE7859194918B3F9C4D19F4D1
:1017A00081E0809307020895EF92FF920F931F93B9
:1017B000CF93DF937B01FC01C281D38100E010E075
:1017C000209781F0E881F9810280F381E02DB70153
:1017D000CE01099597FD08C0080F191F0884D98507
:1017E000C02DEECFC80102C08FEF9FEFDF91CF91E8
:1017F0001F910F91FF90EF9008950F931F93CF9338
:10180000DF938B01FC01C281D381209771F0E881C5
:10181000F9810480F581E02DB801CE01099500978A
:1018200031F40884D985C02DF0CF80E090E0DF91BD
:10183000CF911F910F9108950F931F93CF93DF9333
:101840008B01FC01C281D381209771F0E881F9817D
:101850000680F781E02DB801CE010995080F111D12
:101860000884D985C02DF0CFF8011082DF91CF9187
:101870001F910F9108950F931F93CF93DF938B01C7
:10188000FC01C281D381209771F0E881F981019038
:10189000F081E02DB801CE010995811105C00884C1
:1018A000D985C02DF0CF80E0DF91CF911F910F91AE
:1018B0000895CF93DF93FC01DB01218114968C9175
:1018C000149790E0820F911D0897A4F5C281D381EF
:1018D000209719F47383628308C0888599850097DF
:1018E00011F0EC01FACFB987A887808112968C930A
:1018F0001297818113968C931397908115968C91F2
:101900001597890F808380E014969C91149789170E
:1019100098F41696CD91DC911797C80FD11D988138
:10192000C181D0E0CB5EDE4F988391819F5F918330
:101930008F5FEACF80E001C081E0DF91CF91089511
:101940008091AF0181110DC082E08093AB0184E0F2
:101950008093AC011092AE011092AD0181E08093B2
:10196000AF018BEA91E00895CF93DF931F92CDB73B
:10197000DEB76983DC01ED91FC910280F381E02DFB
:1019800041E050E0BE016F5F7F4F09950F90DF91FE
:10199000CF910895CF93DF93EC018C859D8597FFC0
:1019A00005C082E00E94A1089D878C878C859D855B
:1019B000DF91CF91089583E00C942A0BFC0184857C
:1019C000958597FD06C082E00E944A0890E0019646
:1019D000089582E00E944A0890E00895FC01848501
:1019E000958597FD05C02FEF3FEF35872487089534
:1019F00082E00C94A108CF93DF93EC018091270142
:101A0000882331F083E00E94D2081816190634F0BA
:101A100081E090E09B838A8380E090E0DF91CF912A
:101A20000895FC0190819E5F908342E450E068E459
:101A300072E080E80C946909FC0181819081913AFF
:101A400059F4813209F05CC047E050E060E271E097
:101A500080E00E94690952C0913209F051C083327E
:101A600069F482819381A0E0B0E080931C0190939F
:101A70001D01A0931E01B0931F0140C0803239F4B4
:101A800067E070E080E291E00E94900905C0823238
:101A9000A9F582818093270180910702882319F09C
:101AA000EEEFFAE002C0E0E0F8E0809120019091D2
:101AB0002101A0912201B0912301803B9440A10516
:101AC000B10501F58091270180FD1CC0EE3F2AE0A1
:101AD000F20731F0808191819093FF0A8093FE0A92
:101AE00087E797E7918380839BE088E10FB6F894BE
:101AF000A895809360000FBE9093600081E00895E8
:101B000080E008950FB6F894A895809160008861F0
:101B100080936000109260000FBEA895EE3F8AE0AF
:101B2000F80739F08091FE0A9091FF0A9183808333
:101B3000E5CF1092FF0A1092FE0AE0CFE7EBF1E04A
:101B40001382128288EE93E0A0E0B0E08483958354
:101B5000A683B7838CE491E0918380838FEF9FEF1E
:101B6000958784870895DC01FB0188E4808389E4FC
:101B7000818384E482831D969C911D979F709F5B57
:101B800093831D968D919C911E9724E09695879541
:101B90002A95E1F78F708F5B848385E00895CF935A
:101BA000DF93CDB7DEB769970FB6F894DEBF0FBEEF
:101BB000CDBFFC01DB018C918F5F8C93BE016F5F09
:101BC0007F4F89E1DB011D928A95E9F729E029839E
:101BD00084E08A8391E09D8383E08E832A8721E2DB
:101BE0002B879C879D879F8722E2288B27E02B8B62
:101BF00025E02C8B8E8B20E430E0388F2F8B998F53
:101C000082818B8395858685998B8A8B8381806879
:101C10008D8B49E150E080E00E94690969960FB61A
:101C2000F894DEBF0FBECDBFDF91CF910895EF9244
:101C3000FF920F931F93CF93DF937C01FB01808171
:101C4000813859F58381823241F5D70112968C9102
:101C5000129790E02481358128173907F1F41B96FB
:101C6000CD91DC911C9700E010E0209789F04C8129
:101C70005D816A817B8180E80E9469098F3FBFEFA7
:101C80009B0771F0080F191F0990D881C02DEDCF67
:101C900081E0F7018787C80105C080E090E002C0BD
:101CA0008FEF9FEFDF91CF911F910F91FF90EF90FA
:101CB0000895DC01FB0112968C91129790E024812B
:101CC000358182179307D1F491818081813A31F473
:101CD00081E0913091F0933089F411C0813271F438
:101CE0009B3021F482811F968C9305C09A3031F489
:101CF000828150968C9381E00895089580E0089544
:101D0000FC01A385B485109719F47487638709C013
:101D10008D919C911197009711F0DC01F9CF6D9393
:101D20007C9325853685DB0114968D919C911597C2
:101D3000820F931F968785870895AF92BF92CF92A7
:101D4000DF92EF92FF920F931F93CF93DF931F9237
:101D5000CDB7DEB77C0169836A01590141E050E0EB
:101D6000BE016F5F7F4FFC0183810E94D2088C010E
:101D700097FD0BC0F7018381A501B60180640E9425
:101D8000D20897FD02C0800F911F0F90DF91CF9175
:101D90001F910F91FF90EF90DF90CF90BF90AF9089
:101DA0000895CF93DF93EC0181E08C838D839E01B6
:101DB000265F3F4F3F832E83198618862CE531E03E
:101DC000398328831C861B861E861D868F87888BF9
:101DD00081EC8A870E94A00CBE01DF91CF910C9408
:101DE000590C80911902811107C088E092E00E948D
:101DF000D10E81E08093190288E092E00895F89472
:101E00000C94080FEE0FFF1F0590F491E02D09943C
:041E1000F894FFCF74
:101E1400FF00000000000000005705570557055754
:101E24000557053C0700C18081000000FFFFFFFF4C
:101E340000E10000000000007A737864636676773E
:101E4400650A100E0F070809050600000000EB06DE
:101E5400640780069606A50600000000B40CFB0C7F
:101E6400DE0CEE0CCA0CDB0C00000000590ECF0D8A
:041E7400170EB30D85
:00000001FF
